:100000000C94AD000C948F040C94CA000C94CA009C
:100010000C94CA000C94CA000C94CA000C94CA0038
:100020000C94CA000C94CA000C94CA000C942906C3
:100030000C94CA000C9464070C94CA000C94CA0077
:100040000C94CA000C94CA000C94CA000C94CA0008
:100050000C94CA006364696E6F70737578585B00A6
:1000600000407A10F35A00A0724E18090010A5D46F
:10007000E80000E87648170000E40B54020000CACC
:100080009A3B000000E1F505000080969800000012
:1000900040420F000000A086010000001027000071
:1000A0000000E803000000006400000000000A00F7
:1000B000000000000100000000002C76D888DC67FA
:1000C0004F0823DFC1DFAE59E1B1B796E5E3E45352
:1000D000C63AE651997696E8E6C28426EB898C9B6F
:1000E00062ED407C6FFCEFBC9C9F40F2BAA56FA50F
:1000F000F490055A2AF75C936B6CF9676DC11BFC91
:10010000E0E40D47FEF520E6B500D0ED902E0300AB
:10011000943577050080841E080000204E0A0000F8
:1001200000C80C333333330F986E12831141EF8DB7
:100130002114893BE65516CFFEE6DB18D1844B38F7
:100140001BF77C1D901DA4BBE424203284725E2228
:100150008100C9F124ECA1E53D2711241FBECFE5A4
:10016000D8E0DEBFCDBF11E0A0E6B0E0E0EAF3E208
:1001700002C005900D92A632B107D9F722E0A6E29F
:10018000B1E001C01D92A531B207E1F70E94A907B5
:100190000C94CE110C9400009AE1899F90011124D7
:1001A000932F990F930F292F220F820F0895982FC5
:1001B00092959F70292F220F920F292F220F821BB9
:1001C00008958091600008950F931F93CF93DF935C
:1001D000C82F8B01D42F0E9402080E94FF0788308D
:1001E00029F0803119F0109260002EC080ED0E943D
:1001F00010080E94FF07883129F0803219F0109210
:10020000600022C08C2F0E9410080E94FF078832D5
:1002100099F0803399F01092600016C0F801EC0F4D
:10022000F11D80810E9410080E94FF07883211F0A2
:10023000803339F4CF5F03C0C0E001C0C0E0CD1708
:1002400068F381E0809360000E940A08DF91CF91FB
:100250001F910F910895CF93DF931F92CDB7DEB713
:10026000698341E0BE016F5F7F4F0E94E4000F9001
:10027000DF91CF9108950F931F93CF93DF93082FB2
:10028000EB01142F0E9402080E94FF07883029F01A
:10029000803119F0109260005CC080ED0E9410085F
:1002A0000E94FF07883129F0803219F01092600017
:1002B00050C0802F0E9410080E94FF07883229F04A
:1002C000803319F01092600044C00E9402080E941E
:1002D000FF07883029F0803119F01092600039C092
:1002E00081ED0E9410080E94FF078034B1F088342D
:1002F000B1F0109260002DC00E941908FE01E00FBD
:10030000F11D80830E94FF07803529F0883519F0A0
:10031000109260000DC00F5F03C000E001C000E05C
:10032000202F30E0812F90E001972817390724F320
:10033000C00FD11D0E94200888830E94FF078035CE
:1003400029F0883519F01092600003C081E0809395
:1003500060000E940A08DF91CF911F910F910895CC
:10036000CF93DF931F92CDB7DEB741E0BE016F5F41
:100370007F4F0E943B0189810F90DF91CF910895BB
:10038000EF92FF920F931F93CF93DF93D82FE62E18
:10039000F42E0E94B001482F50E060E070E00E2C77
:1003A00004C076956795579547950A94D2F791E0E2
:1003B00040FF90E0C92F01E010E020E030E004C0F1
:1003C000000F111F221F331FEA94D2F7602F609590
:1003D0006823F110602B8D2F0E942B018C2FDF9151
:1003E000CF911F910F91FF90EF900895AF92BF9220
:1003F000CF92DF92EF92FF920F931F93CF93DF93F1
:10040000CDB7DEB728970FB6F894DEBF0FBECDBFCD
:10041000A32EB42EC52ED62EE72EF82E822F0E94A4
:10042000CC0007E311E0F80180838A2D0E94CC0004
:10043000F80181838B2D0E94CC00F80182838C2DE2
:100440000E94CC00F80183838D2D0E94CC00F8011E
:1004500084838E2D0E94CC00F801858380E38F0D6C
:100460000E94CC00F801868347E0B80180E00E943A
:10047000E40028960FB6F894DEBF0FBECDBFDF9123
:10048000CF911F910F91FF90EF90DF90CF90BF9091
:10049000AF9008950F931F93CF93DF93CDB7DEB73F
:1004A00060970FB6F894DEBF0FBECDBF47E067E39D
:1004B00071E080E00E943B0107E311E0F8018081D8
:1004C0000E94D7008987F80181810E94D7008A871E
:1004D000F80182818F730E94D7008B87F801838196
:1004E0000E94D7008C87F80184810E94D7008D87F5
:1004F000F80185810E94D7008E87F80186810E94CD
:10050000D70090E08053984F988B8F8788E0FE014A
:100510003996DE01119601900D928A95E1F72981B5
:100520003A814B815C816D817E818F819885609657
:100530000FB6F894DEBF0FBECDBFDF91CF911F91F4
:100540000F910895EF92FF920F931F93CF93DF9334
:10055000C82FD62F142FE22E802F0E94CC00F82E09
:100560008E2D0E94CC00082F812F0E94CC00182FC6
:100570008D2F0E94CC00D82FC0FF03C08F2D806824
:10058000F82EC1FD0068C2FD1068C3FDD068C4FD2F
:10059000D064CC2334F06F2D87E00E942B01C8E09B
:1005A00001C0CBE0FF24F394FC0E602F8C2F0E943F
:1005B0002B01CE5F612F8F2D0E942B016D2F8C2F71
:1005C0000E942B01DF91CF911F910F91FF90EF902F
:1005D0000895CF93DF93D82FC62F462F62E08EE089
:1005E0000E94C0014C2F6D2F8EE00E94C001DF9150
:1005F000CF9108959B01AC0111B860E072E18AE7E8
:1006000090E00E942209DA01C9014097A109B109CD
:10061000B695A7959795879580B9089516BE94EAE3
:1006200096BF06B607FEFDCF91B1987F983011F0C6
:10063000903191F490E0880F991F862B83B984E85C
:1006400086BF06B607FEFDCF81B1887F883131F0C5
:10065000803431F480E008958AE0089580E00895C0
:1006600084E1089583B984E886BF06B607FEFDCF0E
:1006700081B1887F883211F085E1089580E0089586
:1006800084E986BF0895CF93C62F60E00E940E03D1
:10069000811108C08C2F0E943203811103C00E9477
:1006A000400380E0CF910895FC012381622B80817B
:1006B0000E94430308950F931F93CF938C01C62F7D
:1006C00064600E9454038AE08A95F1F700C06C2FA1
:1006D0006B7FC8010E94540387EC90E00197F1F70B
:1006E00000C00000CF911F910F9108951F93CF93E9
:1006F000DF93EC01162F0E945403612FCE010E945C
:100700005B03DF91CF911F910895FF920F931F9389
:10071000CF93DF938C01F42E862F807F90E1699F29
:10072000E0011124682F642BC8010E9476036C2F0E
:100730006F29C8010E947603DF91CF911F910F911D
:10074000FF9008950F931F93CF93DF938C01EB01DC
:10075000688106C041E0C8010E9485032196688136
:100760006111F8CFDF91CF911F910F91089540E073
:100770000E9485030895CF93DF9300D000D0CDB7BA
:10078000DEB7198220E42A8324E12B8324E52C831D
:10079000E1E0F0E0EC0FFD1FE60FF11D6081640F5A
:1007A00060680E94B7030F900F900F900F90DF9139
:1007B000CF910895CF93DF93EC0161E00E94B703DE
:1007C0008FE39FE10197F1F700C0000040E060E097
:1007D000CE010E94BB03DF91CF91089562E00E9499
:1007E000B7038FE39FE10197F1F700C00000089580
:1007F000FC016581262F246025836C600E94B7036D
:100800000895CF93DF93CDB7DEB72E970FB6F89448
:10081000DEBF0FBECDBF888769874A871B862C87BE
:1008200084E08D8782E08E87423018F0822F8860C6
:100830008C87222329F0413019F48C8584608C87C1
:100840002FEF81EE94E0215080409040E1F700C00E
:10085000000060E0CE0108960E9454032FEF81EE65
:1008600094E0215080409040E1F700C0000060E338
:10087000CE0108960E9454038FE496E40197F1F7A5
:1008800000C0000060E3CE0108960E9476038FE46A
:1008900096E40197F1F700C0000060E3CE010896EE
:1008A0000E94760387E592E00197F1F700C000000F
:1008B00060E2CE0108960E9476036C856062CE01EC
:1008C00008960E94B703CE0108960E94F803CE0155
:1008D00008960E94DA036E856460CE0108960E9435
:1008E000B703CE0108960E94EE0387E0FE0138961A
:1008F000DE01119601900D928A95E1F729813A81E6
:100900004B815C816D817E818F8190E02E960FB648
:10091000F894DEBF0FBECDBFDF91CF9108951F9237
:100920000F920FB60F9211242F933F934F935F9323
:100930006F937F938F939F93AF93BF93EF93FF93A7
:100940009091750081E089278093750081110BC01B
:1009500087E790E00E94F20781E080933101809365
:10096000340110922C01FF91EF91BF91AF919F91B3
:100970008F917F916F915F914F913F912F910F9048
:100980000FBE0F901F901895CF93DF93C0E0D0E07B
:1009900025C084E08BBB8FE493EC0197F1F700C096
:1009A000000082E08BBB8FE493EC0197F1F700C06D
:1009B000000088E08BBB8FE493EC0197F1F700C057
:1009C000000081E08BBB8FE493EC0197F1F700C04E
:1009D00000008EE890E00E94F2072196C530D10514
:1009E000C4F281E08093330110923101DF91CF9105
:1009F0000895CF93DF93C0E0D0E025C081E08BBBAA
:100A00008FE493EC0197F1F700C0000088E08BBB06
:100A10008FE493EC0197F1F700C0000082E08BBBFC
:100A20008FE493EC0197F1F700C0000084E08BBBEA
:100A30008FE493EC0197F1F700C000008BE990E0A0
:100A40000E94F2072196C530D105C4F281E080935F
:100A5000320110923101DF91CF910895CF93DF934E
:100A6000CDB7DEB728970FB6F894DEBF0FBECDBF67
:100A700089EE97E027E33BE342E152E06DE176E067
:100A80000E94F60128960FB6F894DEBF0FBECDBFC8
:100A9000DF91CF91089582B3886082BB81B380617A
:100AA00081BB089582B38F7E82BB08950F9361E06E
:100AB00080E00E94E90200913501209136014091C9
:100AC00076006091420188E00E94A2020F91089591
:100AD00082B3089587B3826087BB089580EC87B99D
:100AE00087E886B9089586B1806586B986B184B1F4
:100AF00095B108950F931F93CF93DF93CDB7DEB7D2
:100B00002A970FB6F894DEBF0FBECDBF0E947305C3
:100B10000E947305BC0180E090E00E94270820E05D
:100B200030E040E85EE30E9464088E010F5F1F4FD3
:100B300021E030E044E050E00E9444094DE061E0F3
:100B400086E491E00E94BB03B80186E491E00E9434
:100B5000A2032A960FB6F894DEBF0FBECDBFDF9179
:100B6000CF911F910F910895EF92FF920F931F93D2
:100B7000CF93DF93CDB7DEB764970FB6F894DEBF9F
:100B80000FBECDBF0E944A02EEE3F1E02083318325
:100B90004283538364837583868397830E94E10035
:100BA000813009F049C040E060E086E491E00E94B5
:100BB000BB030EE311E0F8012081918182811F9235
:100BC0002F931F929F931F928F9388EA90E09F9399
:100BD0008F937E01FBE0EF0EF11CFF92EF920E94DB
:100BE0007E09B70186E491E00E94A20340E061E043
:100BF00086E491E00E94BB03F801948185811F92F5
:100C00009F931F928F9387818F9386818F9387EB1A
:100C100090E09F938F938E010F5F1F4F1F930F9351
:100C20000E947E09B80186E491E00E94A2030FB6FB
:100C3000F894DEBF0FBECDBF64960FB6F894DEBF4A
:100C40000FBECDBFDF91CF911F910F91FF90EF901D
:100C500008951F920F920FB60F9211242F933F9376
:100C60004F935F936F937F938F939F93AF93BF93B4
:100C7000EF93FF9386E082BF88B7816088BF809141
:100C800028019091290101969093290180932801D0
:100C90000E94B40580913001882351F020912601F3
:100CA000309127012F5F3F4F30932701209326017A
:100CB00020912601309127012E33310561F48823DC
:100CC00051F0109227011092260186E082BF109207
:100CD00030010E94520580912F01882351F020910C
:100CE0002A0130912B012F5F3F4F30932B0120932E
:100CF0002A0120912A0130912B012633314079F4C9
:100D0000882369F010922B0110922A0186E082BF9D
:100D100010922F011092340181E080933101809173
:100D2000280190912901409771F4809175008823E2
:100D300019F081E080932C0181E080932E011092C4
:100D4000290110922801FF91EF91BF91AF919F91DE
:100D50008F917F916F915F914F913F912F910F9064
:100D60000FBE0F901F9018950E946E050E942E05D1
:100D70000E946A058AB38E618ABB60E87AE186E0E8
:100D800090E00E94FA0220E042E060E187E20E94E7
:100D9000010420934601309347014093480150934A
:100DA000490160934A0170934B0180934C01F89480
:100DB0000E944B050E94560589B7816089BF85E076
:100DC00082BF83BF0E94E10778940895CF93DF9399
:100DD000CDB7DEB7A3970FB6F894DEBF0FBECDBF79
:100DE0004BE1EBECF0E09E012F5F3F4FD90101900A
:100DF0000D924A95E1F7AE01445E5F4FBE016E5D14
:100E00007F4F7F936F93625071097F936F936F5FF2
:100E10007F4F7F936F935F934F934F5F5F4F5F93CE
:100E20004F934F5F5F4F5F934F933F932F939F93EA
:100E30008F930E94A0092C8D3D8D4E8D5F8D68A1F2
:100E400079A18AA19BA10E94F6010FB6F894DEBF9A
:100E50000FBECDBFA3960FB6F894DEBF0FBECDBFB9
:100E6000DF91CF910895CF93DF93EC016CE670E0B2
:100E70000E946409892B19F0CE010E94E60661E602
:100E800070E0CE010E946409892B49F086EE90E063
:100E90000E94F20781E0809331018093340166E67D
:100EA00070E0CE010E946409892B49F083EF90E045
:100EB0000E94F20781E0809331011092340180E0BA
:100EC00090E0DF91CF9108951F920F920FB60F928D
:100ED00011242F933F934F935F936F937F938F933F
:100EE0009F93AF93BF93EF93FF938CB18CB9E09135
:100EF0002D01AE2FB0E0A35BBE4F8C93EF5FE0936C
:100F00002D018D30A9F4F0E0E35BFE4F10828DE4FB
:100F100091E00E94F2078DE491E00E943307109265
:100F20002D0188ECEDE4F1E0DF011D928A95E9F7EF
:100F3000FF91EF91BF91AF919F918F917F916F91B1
:100F40005F914F913F912F910F900FBE0F901F9087
:100F500018950E94B40681E091E00E94F20780910A
:100F600031018823F1F082E191E00E94F207809143
:100F70003401882339F090913301911103C00E940C
:100F8000C4040FC081110BC080917500882339F013
:100F900080913201811103C00E94F90402C01092B5
:100FA000310180912C01811110922C0180912E0130
:100FB000882321F00E947A0510922E010E94680574
:100FC000CECF88E18AB980B5866880BD83E389B9D0
:100FD0008AB180688AB9089590E49BB98CB95E9B08
:100FE000FECF0895CF93DF93EC0103C00E94EC077E
:100FF000219688818111FACFDF91CF91089581B137
:10100000887F089584EA86BF06B607FEFDCF0E945A
:10101000FF07089585ED86BF06B604FCFDCF089551
:1010200083B984E886BF06B607FEFDCF0E94FF079E
:10103000089584EC86BF06B607FEFDCF83B1089500
:1010400084E886BF06B607FEFDCF83B10895E89415
:1010500009C097FB3EF490958095709561957F4F00
:101060008F4F9F4F9923A9F0F92F96E9BB279395AE
:10107000F695879577956795B795F111F8CFFAF4BE
:10108000BB0F11F460FF1BC06F5F7F4F8F4F9F4FEF
:1010900016C0882311F096E911C0772321F09EE84D
:1010A000872F762F05C0662371F096E8862F70E0B3
:1010B00060E02AF09A95660F771F881FDAF7880F8D
:1010C0009695879597F908950E9477080C94E808FB
:1010D0000E94DA0838F00E94E10820F0952311F010
:1010E0000C94D1080C94D70811240C941C090E946C
:1010F000F90870F3959FC1F3950F50E0551F629F5B
:10110000F001729FBB27F00DB11D639FAA27F00D60
:10111000B11DAA1F649F6627B00DA11D661F829F87
:101120002227B00DA11D621F739FB00DA11D621F6C
:10113000839FA00D611D221F749F3327A00D611D89
:10114000231F849F600D211D822F762F6A2F11246B
:101150009F5750409AF0F1F088234AF0EE0FFF1F9E
:10116000BB1F661F771F881F91505040A9F79E3FF5
:10117000510580F00C94D1080C941C095F3FE4F3F6
:10118000983ED4F3869577956795B795F795E7954B
:101190009F5FC1F7FE2B880F911D9695879597F954
:1011A000089597F99F6780E870E060E008959FEFE9
:1011B00080EC089500240A941616170618060906EE
:1011C000089500240A9412161306140605060895BD
:1011D000092E0394000C11F4882352F0BB0F40F445
:1011E000BF2B11F460FF04C06F5F7F4F8F4F9F4F85
:1011F000089557FD9058440F551F59F05F3F71F007
:101200004795880F97FB991F61F09F3F79F087956D
:101210000895121613061406551FF2CF4695F1DFF6
:1012200008C0161617061806991FF1CF8695710586
:10123000610508940895E894BB2766277727CB01BA
:1012400097F90895A1E21A2EAA1BBB1BFD010DC040
:10125000AA1FBB1FEE1FFF1FA217B307E407F50766
:1012600020F0A21BB30BE40BF50B661F771F881F42
:10127000991F1A9469F760957095809590959B01D8
:10128000AC01BD01CF010895EF920F931F93CF934F
:10129000DF93E80147FD02C034E001C034E1042ED1
:1012A000000C550B57FF03C0519541955109E32E92
:1012B000022F242FAE010E94470ECE01DF91CF9165
:1012C0001F910F91EF900895FB0151915523A9F0C3
:1012D000BF01DC014D9145174111E1F759F4CD01F2
:1012E0000190002049F04D9140154111C9F3FB01D7
:1012F0004111EFCF81E090E001970895AEE0B0E0BA
:10130000E4E8F9E00C94A5110D891E8986E08C8330
:101310001A8309838FEF9FE79E838D83AE01475E1B
:101320005F4F6F89788DCE0101960E94B909EF81D8
:10133000F885E00FF11F10822E96E4E00C94C111A5
:10134000AEE0B0E0E6EAF9E00C94A71185E08C830A
:101350008B899C899A838983AE01495E5F4F6D8931
:101360007E89CE0101960E94360D2E96E2E00C9405
:10137000C311ABE0B0E0EFEBF9E00C9497116C0116
:101380007B018A01FC0117821682838181FFCCC117
:10139000CE0101963C01F6019381F70193FD859101
:1013A00093FF81917F01882309F4BAC1853239F412
:1013B00093FD859193FF81917F01853229F4B601D8
:1013C00090E00E94E110E7CF912C212C312CFFE11D
:1013D000F315D8F08B3279F038F4803279F083321B
:1013E000A1F4232D20611DC08D3261F0803369F49A
:1013F000232D216016C0832D8260382EE32DE460FA
:101400003E2E2AC0F32DF8601DC037FC2DC020ED04
:10141000280F2A3040F08E32B9F436FC81C1232DDA
:101420002064322E19C036FE06C08AE0989E200D38
:101430001124922E11C0EAE02E9E200D1124222E9E
:10144000F32DF0623F2E08C08C3621F4832D806886
:10145000382E02C0883641F4F70193FD859193FF41
:1014600081917F018111B3CF982F9F7D9554933047
:1014700028F40C5F1F4F9FE399830DC0833631F032
:10148000833771F0833509F059C021C0F80180819C
:1014900089830E5F1F4F88248394912C530113C0BE
:1014A0002801F2E04F0E511CF801A080B18036FEF9
:1014B00003C0692D70E002C06FEF7FEFC5010E948D
:1014C00098104C018201F32DFF773F2E16C02801A2
:1014D00022E0420E511CF801A080B18036FE03C00C
:1014E000692D70E002C06FEF7FEFC5010E948D1083
:1014F0004C01F32DF0683F2E820133FC1BC0822D7E
:1015000090E088169906B0F4B60180E290E00E945F
:10151000E1102A94F4CFF50137FC859137FE8191D3
:101520005F01B60190E00E94E11021102A9421E0B1
:10153000821A91088114910471F7E8C0843611F081
:10154000893641F5F80137FE07C0608171818281DB
:1015500093810C5F1F4F08C060817181072E000CC2
:10156000880B990B0E5F1F4FF32DFF763F2E97FFD1
:1015700009C090958095709561957F4F8F4F9F4FD3
:10158000F0683F2E2AE030E0A3010E943611882E39
:10159000861845C0853731F4232D2F7EB22E2AE0E0
:1015A00030E025C0932D997FB92E8F36C1F018F405
:1015B000883579F0B5C0803719F0883721F0B0C090
:1015C000E92FE061BE2EB4FE0DC0FB2DF460BF2EEE
:1015D00009C034FE0AC0292F2660B22E06C028E0BA
:1015E00030E005C020E130E002C020E132E0F80147
:1015F000B7FE07C060817181828193810C5F1F4FAC
:1016000006C06081718180E090E00E5F1F4FA301F2
:101610000E943611882E8618FB2DFF773F2E36FE4E
:101620000DC0232D2E7FA22E891458F434FE0BC03A
:1016300032FC09C0832D8E7EA82E05C0B82CA32CA9
:1016400003C0B82C01C0B92CA4FE0FC0FE01E80DE8
:10165000F11D8081803321F49A2D997EA92E09C035
:10166000A2FE06C0B394B39404C08A2D867809F014
:10167000B394A3FC11C0A0FE06C0B21488F4280CD9
:10168000922C9B180EC0B21460F4B60180E290E078
:101690000E94E110B394F7CFB21418F42B1802C0D3
:1016A000982C212CA4FE10C0B60180E390E00E948B
:1016B000E110A2FE17C0A1FC03C088E790E002C0C1
:1016C00088E590E0B6010CC08A2D867859F0A1FE1D
:1016D00002C08BE201C080E2A7FC8DE2B60190E07F
:1016E0000E94E110891438F4B60180E390E00E9472
:1016F000E1109A94F7CF8A94F301E80DF11D8081EF
:10170000B60190E00E94E1108110F5CF222009F48B
:1017100042CEB60180E290E00E94E1102A94F6CF1A
:10172000F6018681978102C08FEF9FEF2B96E2E151
:101730000C94B31120FD09C0FC0123FD05C022FF5C
:1017400002C07383628351834083089544FD17C0B0
:1017500046FD17C0AB01BC01DA01FB01AA0FBB1F9C
:10176000EE1FFF1F1094D1F74A0F5B1F6E1F7F1FE4
:10177000CB01BA01660F771F881F991F09C033E09C
:1017800001C034E0660F771F881F991F3150D1F7D1
:10179000620F711D811D911D08950F931F93CF93AB
:1017A000DF938C01C8010E94A310EC0197FD08C0D3
:1017B0000E947910892BB1F7B801CE010E941D114A
:1017C000CE01DF91CF911F910F9108958F929F923B
:1017D000AF92BF92EF92FF920F931F93CF93DF933D
:1017E0008C01D62F7A01B22E0E94A3109C013327C0
:1017F0002B32310531F02D32310561F48B2D8068AB
:10180000B82ED15011F480E068C0C8010E94A31026
:1018100097FDF9CFCB2DCD7F2B2D207309F580338C
:10182000F9F4AA24AA94AD0E09F443C0C8010E9499
:10183000A31097FD3EC09C012F7D3327283531052D
:1018400049F4C264D250A9F1C8010E94A31097FFC5
:1018500007C02FC0B6FE02C0C26001C0C261DA2D4F
:10186000812C912C540120ED280F283080F0C4FFEA
:1018700004C0B8010E941D1119C02A3040F0C6FFF3
:10188000F8CF2F7D3FEE320F363098F727504C2F90
:10189000C501B4010E94A60B4B015C01C260D1508E
:1018A00059F0C8010E94A31097FFDDCFC1FD04C00D
:1018B000AACF812C912C5401C7FF08C0B094A094EA
:1018C00090948094811C911CA11CB11C2C2FB501FB
:1018D000A401C7010E949A0B81E0DF91CF911F9173
:1018E0000F91FF90EF90BF90AF909F908F900895D1
:1018F000A0E2B0E0EEE7FCE00C949A115C01962EB9
:101900007A01F9018E010F5F1F4F680180E2D80153
:101910001D928A95E9F7D50113968C9080E090E0AE
:10192000612C712C30E061E070E083FC259183FE36
:1019300021918F01522E211103C080E090E092C0CE
:101940002E3511F4009751F1432F50E048175907F5
:101950003CF42D3559F12D3219F4772009F103C0EB
:10196000772009F46AC0452D469546954695D601DF
:10197000A40FB11D452D47708B0102C0000F111F30
:101980004A95E2F7A8015C91452B4C93651459F0F8
:10199000561410F45394E7CF5A94E5CF31E004C0C5
:1019A0007724739401C0712C0196BFCF772019F072
:1019B0008E8180628E83311103C08824839417C086
:1019C000F6019E012F5D3F4F8081809581932E17F8
:1019D0003F07D1F7F2CFE114F10429F0D7018C933E
:1019E000F70131967F019A94812C9920F9F0C50175
:1019F0000E94A31097FD18C0FC01FF2723E0F59576
:101A0000E7952A95E1F7EC0DFD1D208130E0AC0152
:101A10004770552702C0359527954A95E2F720FD76
:101A2000DACFB5010E941D11811087CFE114F104B6
:101A300011F0D7011C92C80115C0422F469546955A
:101A40004695D601A40FB11D422F47708B0102C0ED
:101A5000000F111F4A95E2F7A8015C91452B4C93AA
:101A6000622EA2CFA096EFE00C94B611A0E0B0E0F9
:101A7000ECE3FDE00C949A116C01EB015A01FC01BE
:101A800017821682512CF601E380FE01E3FC85915A
:101A9000E3FE8191182FEF01882309F4EEC090E056
:101AA0000E947910892B21F0C6010E94CD0BEBCF4B
:101AB000153241F4FE01E3FC1591E3FE1191EF01B3
:101AC000153281F4C6010E94A31097FDD4C0412FA6
:101AD00050E09C01332724173507A9F2B6010E9474
:101AE0001D11CBC01A3239F4E3FC1591E3FE1191BC
:101AF000EF0101E001C000E0F12C20ED210F2A30C0
:101B000080F402606F2D70E080E090E040E20E947F
:101B1000A60BF62EFE01E3FC1591E3FE1191EF01F9
:101B2000ECCF01FF03C0F11003C0A7C0FF24FA945B
:101B3000183619F01C3651F010C0FE01E3FC159167
:101B4000E3FE1191EF01183641F408600460FE01D4
:101B5000E3FC1591E3FE1191EF01112309F48DC00F
:101B6000612F70E084E590E00E948210892B09F4D7
:101B700084C000FD07C0F50180809180C5010296F8
:101B80005C0102C0812C912C1E3651F4F601468175
:101B9000578160E070E0202FC4010E949A0B73CF40
:101BA0001336A9F401FD02C0FF24F394C6010E947C
:101BB000A31097FD60C08114910429F0F401808383
:101BC000C40101964C01FA94F110F0CF50C01B35BE
:101BD00059F49E01A4016F2DC6010E94780CEC01FE
:101BE000892B09F044C03EC0C6010E94CD0B97FD71
:101BF00042C01F3661F128F4143639F1193651F11B
:101C000028C0133771F0153701F123C081149104F6
:101C100029F0F4016082C40101964C01FA94FF207E
:101C200071F0C6010E94A3103C0197FD08C00E94FC
:101C30007910892B59F3B601C3010E941D1181143B
:101C40009104A9F0F401108212C0006203C0006187
:101C500001C00064202FA4016F2DC6010E94E60B75
:101C6000811105C0F6018381807329F406C000FD4F
:101C70000ACF539408CF552019F0852D90E002C06B
:101C80008FEF9FEFCDB7DEB7EFE00C94B611A9E070
:101C9000B0E0EDE4FEE00C949D116A01122FB02E2D
:101CA0002BE3201720F0FF24F394F00E02C02CE366
:101CB000F22E0F2D27E0AE014F5F5F4F0E94A10F64
:101CC000BC014981842F8970813031F0E1FC06C06C
:101CD000E0FE06C090E205C09DE203C09BE201C0A9
:101CE00090E05E2D507143FF3CC0911102C083E033
:101CF00001C084E0811718F4212F281B01C020E0C7
:101D000051110BC0F601822F30E2882319F0319374
:101D10008150FBCFC20ED11C20E0992329F0D601BF
:101D20009C93F60131966F01C6010396E2FE0AC04C
:101D30003EE4D6013C9341E411964C9311971296E0
:101D40003C9306C03EE6F601308341E64183328390
:101D5000FC01322F40E2332309F442C04193315059
:101D6000FACF42FF44C0911102C083E001C084E079
:101D7000811718F4212F281B01C020E051110BC03E
:101D8000F601822F30E2882319F031938150FBCF86
:101D9000C20ED11C20E0992329F0D6019C93F601B4
:101DA00031966F01C6010396E2FE0BC039E4D601FD
:101DB0003C933EE411963C93119736E412963C9383
:101DC00007C039E6F60130833EE6318336E63283DA
:101DD000FC01322F40E2332319F041933150FBCF05
:101DE000FC01E20FF11D10828EEF9FEFA6C021E0F3
:101DF00030E0911102C020E030E0161617061CF406
:101E0000FB01319602C0E1E0F0E02E0F3F1FBB2046
:101E100021F0EB2DF0E0319602C0E0E0F0E02E0F73
:101E20003F1FE12FF0E02E173F071CF4121B212F5C
:101E300001C020E08E2D887159F4F601822F30E226
:101E4000882319F031938150FBCFC20ED11C20E0C2
:101E5000992329F0D6019C93F60131966F01511117
:101E60000BC0F601822F90E3882319F091938150E3
:101E7000FBCFC20ED11C20E00F2D060F9A81342F0C
:101E8000307144FF03C0913309F40150101624F45B
:101E9000093018F008E001C001E0AB0177FF02C093
:101EA00040E050E0FB01E41BF50BA1E0B0E0AC0F1B
:101EB000BD1FEA0FFB1F8EE2A82E4B01801A91086E
:101EC0000B2D10E01195019511094F3FBFEF5B07F6
:101ED00021F4D601AC9211966D01641775072CF0B0
:101EE0008416950614F4818101C080E341505109A4
:101EF0003196D60111967D014017510724F0D60185
:101F00008C936701E2CF6417750739F4963320F498
:101F1000953319F4311101C081E3F6018083F70193
:101F2000822F90E2882319F091938150FBCFF70123
:101F3000E20FF11D108280E090E02996ECE00C9415
:101F4000B911283008F027E03327DA01990F311D45
:101F500087FD916000966105710539F432602E5F4E
:101F60003D9330E32A95E1F708959F3F30F08038A4
:101F70007105610509F03C5F3C5F3D93913008F0CD
:101F80008068911DDF93CF931F930F93FF92EF9281
:101F9000192F987F9695E92F96959695E90FFF272B
:101FA000E654FF4F99273327EE24FF24A701E701CA
:101FB00005900894079428F4360FE71EF81E491F71
:101FC000511D660F771F881F991F0694A1F7059072
:101FD000079428F4E70EF81E491F561FC11D770FFE
:101FE000881F991F661F0694A1F70590079428F48F
:101FF000F80E491F561FC71FD11D880F991F661F56
:10200000771F0694A1F70590079420F4490F561FF7
:10201000C71FD81F990F661F771F881F0694A9F73F
:1020200084911095177041F0D695C79557954795AF
:10203000F794E7941A95C1F7E0E6F0E068941590FC
:10204000159135916591959105907FE27395E11811
:10205000F10A430B560BC90BD009C0F7E10CF11E76
:10206000431F561FC91FD01D7EF4703311F48A958B
:10207000E6CFE894015030F0080F0AF40027021769
:1020800008F4202F2395022F7A3328F079E37D93EB
:102090002A95E9F710C07D932A9589F606949795BD
:1020A0006795379517951794E118F10A430B560B6E
:1020B000C90BD00998F023957E9173957A3308F077
:1020C00070E37C932013B8F77E9170617D9330F0BC
:1020D000839571E37D9370E32A95E1F71124EF90E6
:1020E000FF900F911F91CF91DF91992787FD9095D8
:1020F000089591110C949411803219F089508550F3
:10210000C8F70895FC010590061621F00020D9F7C4
:10211000C00108953197CF010895FC0105906150E9
:1021200070400110D8F7809590958E0F9F1F0895ED
:10213000FC016150704001900110D8F78095909596
:102140008E0F9F1F0895CF93DF93EC012B8120FF0B
:1021500033C026FF0AC02F7B2B838E819F8101967F
:102160009F838E838A8190E029C022FF0FC0E8817F
:10217000F9818081082E000C990B009719F42062D8
:102180002B831AC03196F983E8830EC0EA85FB855C
:10219000099597FF09C02B81019611F080E201C0DB
:1021A00080E1822B8B8308C02E813F812F5F3F4FC0
:1021B0003F832E83992702C08FEF9FEFDF91CF914E
:1021C00008950F931F93CF93DF93FB01238121FD8C
:1021D00003C08FEF9FEF2CC022FF16C046815781AE
:1021E000248135814217530744F4A081B1819D01B8
:1021F0002F5F3F4F318320838C93268137812F5F60
:102200003F4F3783268314C08B01EC01FB01008410
:10221000F185E02D0995892BE1F6D80116968D916F
:102220009C911797019617969C938E931697CE01C3
:10223000DF91CF911F910F910895FB01238120FF22
:1022400012C026FD10C08F3F3FEF930761F08283DD
:102250002F7D2064238326813781215031093783E4
:102260002683992708958FEF9FEF0895FA01AA27F3
:10227000283051F1203181F1E8946F936E7F6E5FC9
:102280007F4F8F4F9F4FAF4FB1E03ED0B4E03CD077
:10229000670F781F891F9A1FA11D680F791F8A1F5A
:1022A000911DA11D6A0F711D811D911DA11D20D0C1
:1022B00009F468943F912AE0269F11243019305D7B
:1022C0003193DEF6CF010895462F4770405D41936C
:1022D000B3E00FD0C9F7F6CF462F4F70405D4A33B9
:1022E00018F0495D31FD4052419302D0A9F7EACF81
:1022F000B4E0A6959795879577956795BA95C9F7B0
:1023000000976105710508959B01AC010A2E0694A2
:102310005795479537952795BA95C9F7620F731F5B
:10232000841F951FA01D08959927882708952F922F
:102330003F924F925F926F927F928F929F92AF9255
:10234000BF92CF92DF92EF92FF920F931F93CF93A2
:10235000DF93CDB7DEB7CA1BDB0B0FB6F894DEBF39
:102360000FBECDBF09942A88398848885F846E845F
:102370007D848C849B84AA84B984C884DF80EE80A9
:10238000FD800C811B81AA81B981CE0FD11D0FB6B2
:10239000F894DEBF0FBECDBFED010895F894FFCFD6
:1023A000016F70656E00636C6F73650073657420F8
:1023B00074696D650001136D616E75616C206D6FE0
:1023C0006465204163746976656421200D00206F87
:1023D00070656E696E672E2E2E0D0020636C6F7314
:1023E000696E672E2E2E0D00253032643A2530326C
:1023F000643A2530326400253032642F253032644F
:102400002F2530326400252E3266007365742074E7
:10241000696D652025643A25643A25642025642F7A
:1024200025642F2564006F70656E20636F6D6D618C
:102430006E6400636C6F736520636F6D6D616E64B5
:102440000020456E74657220636F6D6D616E643A35
:102450002000206D6F746F7220776F726B696E67EA
:062460002E2E2E0D0000DF
:00000001FF
