:100000000C9430000C944D000C944D000C944D0059
:100010000C944D000C944D000C944D000C944D002C
:100020000C944D000C944D000C944D000C947605EE
:100030000C944D000C945C060C944D000C944D00F7
:100040000C944D000C944D000C944D000C944D00FC
:100050000C944D006364696E6F70737578585B0023
:1000600011241FBECFE5D8E0DEBFCDBF10E0A0E673
:10007000B0E0EEECFCE102C005900D92AA3DB107A4
:10008000D9F721E0AAEDB0E001C01D92AA3CB20769
:10009000E1F70E94C9040C94650E0C9400009AE1EB
:1000A000899F90011124932F990F930F292F220FCD
:1000B000820F0895982F92959F70292F220F920FEB
:1000C000292F220F821B08958091600008950F93BD
:1000D0001F93CF93DF93C82F8B01D42F0E94C206AA
:1000E0000E94BF06883029F0803119F0109260001C
:1000F0002EC080ED0E94D0060E94BF06883129F0F4
:10010000803219F01092600022C08C2F0E94D0061D
:100110000E94BF06883299F0803399F010926000F7
:1001200016C0F801EC0FF11D80810E94D0060E94DC
:10013000BF06883211F0803339F4CF5F03C0C0E0CE
:1001400001C0C0E0CD1768F381E0809360000E9499
:10015000CA06DF91CF911F910F910895CF93DF933E
:100160001F92CDB7DEB7698341E0BE016F5F7F4F5D
:100170000E9467000F90DF91CF9108950F931F9316
:10018000CF93DF93082FEB01142F0E94C2060E9429
:10019000BF06883029F0803119F0109260005CC0F1
:1001A00080ED0E94D0060E94BF06883129F080327F
:1001B00019F01092600050C0802F0E94D0060E945B
:1001C000BF06883229F0803319F01092600044C0D5
:1001D0000E94C2060E94BF06883029F0803119F0C3
:1001E0001092600039C081ED0E94D0060E94BF06C7
:1001F0008034B1F08834B1F0109260002DC00E94BC
:10020000D906FE01E00FF11D80830E94BF068035F4
:1002100029F0883519F0109260000DC00F5F03C0FF
:1002200000E001C000E0202F30E0812F90E0019736
:100230002817390724F3C00FD11D0E94E0068883D8
:100240000E94BF06803529F0883519F010926000B1
:1002500003C081E0809360000E94CA06DF91CF91C5
:100260001F910F910895AF92BF92CF92DF92EF92BC
:10027000FF920F931F93CF93DF93CDB7DEB72897ED
:100280000FB6F894DEBF0FBECDBFA32EB42EC52E81
:10029000D62EE72EF82E822F0E944F000CEE10E093
:1002A000F80180838A2D0E944F00F80181838B2DF5
:1002B0000E944F00F80182838C2D0E944F00F801AC
:1002C00083838D2D0E944F00F80184838E2D0E9420
:1002D0004F00F801858380E38F0D0E944F00F801E5
:1002E000868347E0B80180E00E94670028960FB639
:1002F000F894DEBF0FBECDBFDF91CF911F910F915C
:10030000FF90EF90DF90CF90BF90AF9008950F9344
:100310001F93CF93DF93CDB7DEB760970FB6F894F6
:10032000DEBF0FBECDBF47E06CEE70E080E00E9404
:10033000BE000CEE10E0F80180810E945A0089870F
:10034000F80181810E945A008A87F80182818F73A7
:100350000E945A008B87F80183810E945A008C8783
:10036000F80184810E945A008D87F80185810E94DE
:100370005A008E87F80186810E945A0090E08053CF
:10038000984F988B8F8788E0FE013996DE01119691
:1003900001900D928A95E1F729813A814B815C8128
:1003A0006D817E818F81988560960FB6F894DEBF4F
:1003B0000FBECDBFDF91CF911F910F910895EF92A6
:1003C000FF920F931F93CF93DF93C82FD62F142F35
:1003D000E22E802F0E944F00F82E8E2D0E944F009B
:1003E000082F812F0E944F00182F8D2F0E944F0041
:1003F000D82FC0FF03C08F2D8068F82EC1FD006884
:10040000C2FD1068C3FDD068C4FDD064CC2334F0B5
:100410006F2D87E00E94AE00C8E001C0CBE0FF2452
:10042000F394FC0E602F8C2F0E94AE00CE5F612FE4
:100430008F2D0E94AE006D2F8C2F0E94AE00DF9199
:10044000CF911F910F91FF90EF9008959B01AC0108
:1004500011B860E072E18AE790E00E940B08DA01CF
:10046000C9014097A109B109B695A79597958795B8
:1004700080B9089516BE94EA96BF06B607FEFDCF72
:1004800091B1987F983011F0903191F490E0880FFD
:10049000991F862B83B984E886BF06B607FEFDCF79
:1004A00081B1887F883131F0803431F480E0089563
:1004B0008AE0089580E0089584E1089583B984E88E
:1004C00086BF06B607FEFDCF81B1887F883211F066
:1004D00085E1089580E0089584E986BF0895CF936B
:1004E000C62F60E00E943A02811108C08C2F0E9442
:1004F0005E02811103C00E946C0280E0CF910895DA
:10050000FC012381622B80810E946F0208950F936A
:100510001F93CF938C01C62F64600E9480028AE0F3
:100520008A95F1F700C06C2F6B7FC8010E94800292
:1005300087EC90E00197F1F700C00000CF911F9188
:100540000F9108951F93CF93DF93EC01162F0E9414
:100550008002612FCE010E948702DF91CF911F910F
:100560000895FF920F931F93CF93DF938C01F42E86
:10057000862F807F90E1699FE0011124682F642B12
:10058000C8010E94A2026C2F6F29C8010E94A2021A
:10059000DF91CF911F910F91FF9008950F931F93BB
:1005A000CF93DF938C01EB01688106C041E0C80165
:1005B0000E94B102219668816111F8CFDF91CF913D
:1005C0001F910F91089540E00E94B1020895CF93CA
:1005D000DF9300D000D0CDB7DEB7198220E42A83A4
:1005E00024E12B8324E52C83E1E0F0E0EC0FFD1FF8
:1005F000E60FF11D6081640F60680E94E3020F90B6
:100600000F900F900F90DF91CF910895CF93DF93CC
:10061000EC0161E00E94E3028FE39FE10197F1F7B3
:1006200000C0000040E060E0CE010E94E702DF91E0
:10063000CF91089562E00E94E3028FE39FE101976A
:10064000F1F700C000000895FC016581262F2460A9
:1006500025836C600E94E3020895CF93DF93CDB7AA
:10066000DEB72E970FB6F894DEBF0FBECDBF8887DA
:1006700069874A871B862C8784E08D8782E08E8776
:10068000423018F0822F88608C87222329F0413075
:1006900019F48C8584608C872FEF81EE94E02150D3
:1006A00080409040E1F700C0000060E0CE01089675
:1006B0000E9480022FEF81EE94E021508040904014
:1006C000E1F700C0000060E3CE0108960E948002BE
:1006D0008FE496E40197F1F700C0000060E3CE01DB
:1006E00008960E94A2028FE496E40197F1F700C0F9
:1006F000000060E3CE0108960E94A20287E592E026
:100700000197F1F700C0000060E2CE0108960E9458
:10071000A2026C856062CE0108960E94E302CE01BF
:1007200008960E942403CE0108960E9406036E8557
:100730006460CE0108960E94E302CE0108960E94F2
:100740001A0387E0FE013896DE01119601900D92A2
:100750008A95E1F729813A814B815C816D817E81A7
:100760008F8190E02E960FB6F894DEBF0FBECDBFFE
:10077000DF91CF910895CF93DF93C0E0D0E025C003
:1007800084E08BBB8FE493EC0197F1F700C000008D
:1007900082E08BBB8FE493EC0197F1F700C000007F
:1007A00088E08BBB8FE493EC0197F1F700C0000069
:1007B00081E08BBB8FE493EC0197F1F700C0000060
:1007C0008BE690E00E94B2062196C530D105C4F2B6
:1007D00081E08093EA001092E800DF91CF910895C4
:1007E000CF93DF93C0E0D0E025C081E08BBB8FE4E6
:1007F00093EC0197F1F700C0000088E08BBB8FE419
:1008000093EC0197F1F700C0000082E08BBB8FE40E
:1008100093EC0197F1F700C0000084E08BBB8FE4FC
:1008200093EC0197F1F700C0000088E790E00E9488
:10083000B2062196C530D105C4F281E08093E9006B
:100840001092E800DF91CF91089581B3806881BB59
:10085000089582B3806882BB089582B38F7782BB8C
:100860000895CF93DF93CDB7DEB728970FB6F894EE
:10087000DEBF0FBECDBF89EE97E029E33BE342E147
:1008800052E06DE176E00E94330128960FB6F894AD
:10089000DEBF0FBECDBFDF91CF9108950F9300E073
:1008A00020E043E160E088E00E94DF010F910895BD
:1008B00087B3826087BB87B38E7F87BB88B3816035
:1008C00088BB08950E9431040E944E040E942504B2
:1008D0000E94580481B3806881BB8AB38F608ABB51
:1008E00060E87AE186E090E00E94260220E042E0A3
:1008F00060E187E20E942D032093FB003093FC000F
:100900004093FD005093FE006093FF007093000140
:1009100080930101F89489B7816089BF85E082BF27
:1009200083BF78940E94A10685E890E00E94B206F9
:1009300008958BB382608BBB83E08A95F1F700004A
:100940008BB38D7F8BBB0895C89BFECF82B790E0A1
:100950009093E4008093E300C899FECF82B790E0C3
:100960009093E2008093E1006091E1007091E200D9
:100970008091E3009091E400681B790B80E090E0A7
:100980000E94EC0628E23EE74CE85CE30E944D073B
:1009900008950E9462048091E800882371F080919C
:1009A000EB00882319F00E94BB0307C0811105C02A
:1009B00080916A0081110E94F0038091E70081110B
:1009C0000E9429048091E700811102C00E942D0439
:1009D0008091E0008823F9F21092E0000E949904CF
:1009E0000E94A40420E030E040EA51E40E94E706BF
:1009F000882324F481E08093E600CDCF1092E600B6
:100A0000CACFEF92FF920F931F93CF93DF93CDB78F
:100A1000DEB764970FB6F894DEBF0FBECDBF0E945D
:100A20008701E3EFF0E020833183428353836483C3
:100A30007583868397830E946400813009F049C0E2
:100A400040E060E08BEF90E00E94E70203EF10E0EF
:100A5000F8012081918182811F922F931F929F9391
:100A60001F928F938CE990E09F938F937E01FBE020
:100A7000EF0EF11CFF92EF920E944708B7018BEF37
:100A800090E00E94CE0240E061E08BEF90E00E9497
:100A9000E702F801948185811F929F931F928F93A3
:100AA00087818F9386818F938BEA90E09F938F93BA
:100AB0008E010F5F1F4F1F930F930E944708B801CD
:100AC0008BEF90E00E94CE020FB6F894DEBF0FBE0F
:100AD000CDBF64960FB6F894DEBF0FBECDBFDF91D9
:100AE000CF911F910F91FF90EF9008951F920F9259
:100AF0000FB60F9211242F933F934F935F936F93F1
:100B00007F938F939F93AF93BF93EF93FF9386E071
:100B100082BF88B7816088BF0E9401058091DA009A
:100B20009091DB0001969093DB008093DA00809136
:100B3000E700882351F02091DE003091DF002F5F25
:100B40003F4F3093DF002093DE002091DE00309194
:100B5000DF002132310551F4882341F01092DF008B
:100B60001092DE0086E082BF1092E7008091E600DE
:100B7000882351F02091DC003091DD002F5F3F4F42
:100B80003093DD002093DC002091DE003091DF0007
:100B90002534314089F4882379F01092DD001092D9
:100BA000DC0086E082BF1092E6001092EB0010920B
:100BB000EA0081E08093E8008091DA009091DB0008
:100BC000409759F48091E000811107C01092DB003A
:100BD0001092DA0081E08093E000FF91EF91BF91E5
:100BE000AF919F918F917F916F915F914F913F91C5
:100BF0002F910F900FBE0F901F901895CF93DF93FA
:100C0000CDB7DEB7A3970FB6F894DEBF0FBECDBF4A
:100C10004BE1EAEBF0E09E012F5F3F4FD9010190DD
:100C20000D924A95E1F7AE01445E5F4FBE016E5DE5
:100C30007F4F7F936F93625071097F936F936F5FC4
:100C40007F4F7F936F935F934F934F5F5F4F5F93A0
:100C50004F934F5F5F4F5F934F933F932F939F93BC
:100C60008F930E9469082C8D3D8D4E8D5F8D68A1FC
:100C700079A18AA19BA10E9433010FB6F894DEBF2F
:100C80000FBECDBFA3960FB6F894DEBF0FBECDBF8B
:100C9000DF91CF910895CF93DF93EC0161E670E08F
:100CA0000E942D08892B19F0CE010E94FE0580E0DC
:100CB00090E0DF91CF9108951F920F920FB60F929F
:100CC00011242F933F934F935F936F937F938F9351
:100CD0009F93AF93BF93EF93FF938CB18CB9109216
:100CE000DF001092DE00E091E500AE2FB0E0AE5FD5
:100CF000BE4F8C93EF5FE093E5008D3089F4F0E018
:100D0000EE5FFE4F108282E091E00E944B0610924F
:100D1000E50088ECE2E0F1E0DF011D928A95E9F759
:100D2000FF91EF91BF91AF919F918F917F916F91C3
:100D30005F914F913F912F910F900FBE0F901F9099
:100D4000189588E18AB980B5866880BD83E389B942
:100D50008AB180688AB9089590E49BB98CB95E9B8A
:100D6000FECF0895CF93DF93EC0103C00E94AC0641
:100D7000219688818111FACFDF91CF91089581B1B9
:100D8000887F089584EA86BF06B607FEFDCF0E94DD
:100D9000BF06089585ED86BF06B604FCFDCF089515
:100DA00083B984E886BF06B607FEFDCF0E94BF0662
:100DB000089584EC86BF06B607FEFDCF83B1089583
:100DC00084E886BF06B607FEFDCF83B108950E9472
:100DD000290708F481E00895E89409C097FB3EF4E0
:100DE00090958095709561957F4F8F4F9F4F992378
:100DF000A9F0F92F96E9BB279395F69587957795F6
:100E00006795B795F111F8CFFAF4BB0F11F460FFB5
:100E10001BC06F5F7F4F8F4F9F4F16C0882311F00D
:100E200096E911C0772321F09EE8872F762F05C021
:100E3000662371F096E8862F70E060E02AF09A95BC
:100E4000660F771F881FDAF7880F9695879597F9B1
:100E50000895990F0008550FAA0BE0E8FEEF16164B
:100E60001706E807F907C0F012161306E407F5079E
:100E700098F0621B730B840B950B39F40A2661F012
:100E8000232B242B252B21F408950A2609F4A140B5
:100E9000A6958FEF811D811D08950E9460070C9417
:100EA000D1070E94C30738F00E94CA0720F095239B
:100EB00011F00C94BA070C94C00711240C94050887
:100EC0000E94E20770F3959FC1F3950F50E0551F04
:100ED000629FF001729FBB27F00DB11D639FAA278F
:100EE000F00DB11DAA1F649F6627B00DA11D661FDE
:100EF000829F2227B00DA11D621F739FB00DA11DFF
:100F0000621F839FA00D611D221F749F3327A00DB8
:100F1000611D231F849F600D211D822F762F6A2F54
:100F200011249F5750409AF0F1F088234AF0EE0FB9
:100F3000FF1FBB1F661F771F881F91505040A9F7E6
:100F40009E3F510580F00C94BA070C9405085F3F52
:100F5000E4F3983ED4F3869577956795B795F79522
:100F6000E7959F5FC1F7FE2B880F911D969587959A
:100F700097F9089597F99F6780E870E060E0089519
:100F80009FEF80EC089500240A94161617061806A1
:100F90000906089500240A9412161306140605067D
:100FA0000895092E0394000C11F4882352F0BB0F0E
:100FB00040F4BF2B11F460FF04C06F5F7F4F8F4F71
:100FC0009F4F089557FD9058440F551F59F05F3FAC
:100FD00071F04795880F97FB991F61F09F3F79F05B
:100FE00087950895121613061406551FF2CF4695DD
:100FF000F1DF08C0161617061806991FF1CF86955F
:101000007105610508940895E894BB276627772742
:10101000CB0197F90895A1E21A2EAA1BBB1BFD0173
:101020000DC0AA1FBB1FEE1FFF1FA217B307E407C7
:10103000F50720F0A21BB30BE40BF50B661F771F1F
:10104000881F991F1A9469F76095709580959095FF
:101050009B01AC01BD01CF010895FB0151915523C6
:10106000A9F0BF01DC014D9145174111E1F759F499
:10107000CD010190002049F04D9140154111C9F377
:10108000FB014111EFCF81E090E001970895AEE0C0
:10109000B0E0EDE4F8E00C943C0E0D891E8986E08A
:1010A0008C831A8309838FEF9FE79E838D83AE0124
:1010B000475E5F4F6F89788DCE0101960E9482084E
:1010C000EF81F885E00FF11F10822E96E4E00C947A
:1010D000580EAEE0B0E0EFE6F8E00C943E0E85E08E
:1010E0008C838B899C899A838983AE01495E5F4F8B
:1010F0006D897E89CE0101960E94FF0B2E96E2E05B
:101100000C945A0EABE0B0E0E8E8F8E00C942E0E38
:101110006C017B018A01FC0117821682838181FFA9
:10112000CCC1CE0101963C01F6019381F70193FDFC
:10113000859193FF81917F01882309F4BAC185329B
:1011400039F493FD859193FF81917F01853229F4D4
:10115000B60190E00E94780DE7CF912C212C312C24
:10116000FFE1F315D8F08B3279F038F4803279F062
:101170008332A1F4232D20611DC08D3261F08033B4
:1011800069F4232D216016C0832D8260382EE32D53
:10119000E4603E2E2AC0F32DF8601DC037FC2DC040
:1011A00020ED280F2A3040F08E32B9F436FC81C190
:1011B000232D2064322E19C036FE06C08AE0989E88
:1011C000200D1124922E11C0EAE02E9E200D112434
:1011D000222EF32DF0623F2E08C08C3621F4832D91
:1011E0008068382E02C0883641F4F70193FD85915E
:1011F00093FF81917F018111B3CF982F9F7D9554EB
:10120000933028F40C5F1F4F9FE399830DC0833602
:1012100031F0833771F0833509F059C021C0F801EE
:10122000808189830E5F1F4F88248394912C530102
:1012300013C02801F2E04F0E511CF801A080B180CC
:1012400036FE03C0692D70E002C06FEF7FEFC5016D
:101250000E942F0D4C018201F32DFF773F2E16C007
:10126000280122E0420E511CF801A080B18036FE18
:1012700003C0692D70E002C06FEF7FEFC5010E94CF
:10128000240D4C01F32DF0683F2E820133FC1BC06E
:10129000822D90E088169906B0F4B60180E290E0C5
:1012A0000E94780D2A94F4CFF50137FC859137FE22
:1012B00081915F01B60190E00E94780D21102A947F
:1012C00021E0821A91088114910471F7E8C08436F4
:1012D00011F0893641F5F80137FE07C06081718150
:1012E000828193810C5F1F4F08C060817181072E3E
:1012F000000C880B990B0E5F1F4FF32DFF763F2ECE
:1013000097FF09C090958095709561957F4F8F4F9D
:101310009F4FF0683F2E2AE030E0A3010E94CD0DE0
:10132000882E861845C0853731F4232D2F7EB22EA6
:101330002AE030E025C0932D997FB92E8F36C1F079
:1013400018F4883579F0B5C0803719F0883721F066
:10135000B0C0E92FE061BE2EB4FE0DC0FB2DF460DD
:10136000BF2E09C034FE0AC0292F2660B22E06C047
:1013700028E030E005C020E130E002C020E132E0AA
:10138000F801B7FE07C060817181828193810C5F93
:101390001F4F06C06081718180E090E00E5F1F4F9B
:1013A000A3010E94CD0D882E8618FB2DFF773F2EBE
:1013B00036FE0DC0232D2E7FA22E891458F434FE44
:1013C0000BC032FC09C0832D8E7EA82E05C0B82C20
:1013D000A32C03C0B82C01C0B92CA4FE0FC0FE0181
:1013E000E80DF11D8081803321F49A2D997EA92E7C
:1013F00009C0A2FE06C0B394B39404C08A2D8678B7
:1014000009F0B394A3FC11C0A0FE06C0B21488F486
:10141000280C922C9B180EC0B21460F4B60180E226
:1014200090E00E94780DB394F7CFB21418F42B1803
:1014300002C0982C212CA4FE10C0B60180E390E0DD
:101440000E94780DA2FE17C0A1FC03C088E790E0BF
:1014500002C088E590E0B6010CC08A2D867859F06C
:10146000A1FE02C08BE201C080E2A7FC8DE2B601C2
:1014700090E00E94780D891438F4B60180E390E082
:101480000E94780D9A94F7CF8A94F301E80DF11D2C
:101490008081B60190E00E94780D8110F5CF222066
:1014A00009F442CEB60180E290E00E94780D2A94C1
:1014B000F6CFF6018681978102C08FEF9FEF2B96C2
:1014C000E2E10C944A0E20FD09C0FC0123FD05C099
:1014D00022FF02C07383628351834083089544FDD9
:1014E00017C046FD17C0AB01BC01DA01FB01AA0F12
:1014F000BB1FEE1FFF1F1094D1F74A0F5B1F6E1F1B
:101500007F1FCB01BA01660F771F881F991F09C083
:1015100033E001C034E0660F771F881F991F3150F8
:10152000D1F7620F711D811D911D08950F931F93B7
:10153000CF93DF938C01C8010E943A0DEC0197FD17
:1015400008C00E94100D892BB1F7B801CE010E948E
:10155000B40DCE01DF91CF911F910F9108958F921D
:101560009F92AF92BF92EF92FF920F931F93CF93F0
:10157000DF938C01D62F7A01B22E0E943A0D9C0186
:1015800033272B32310531F02D32310561F48B2DAB
:101590008068B82ED15011F480E068C0C8010E9464
:1015A0003A0D97FDF9CFCB2DCD7F2B2D207309F56B
:1015B0008033F9F4AA24AA94AD0E09F443C0C801FB
:1015C0000E943A0D97FD3EC09C012F7D33272835A0
:1015D000310549F4C264D250A9F1C8010E943A0D04
:1015E00097FF07C02FC0B6FE02C0C26001C0C26133
:1015F000DA2D812C912C540120ED280F283080F019
:10160000C4FF04C0B8010E94B40D19C02A3040F0D4
:10161000C6FFF8CF2F7D3FEE320F363098F72750B8
:101620004C2FC501B4010E946F0A4B015C01C260DE
:10163000D15059F0C8010E943A0D97FFDDCFC1FD8E
:1016400004C0AACF812C912C5401C7FF08C0B094CC
:10165000A09490948094811C911CA11CB11C2C2FEF
:10166000B501A401C7010E94630A81E0DF91CF9117
:101670001F910F91FF90EF90BF90AF909F908F9030
:101680000895A0E2B0E0E7E4FBE00C94310E5C01C9
:10169000962E7A01F9018E010F5F1F4F680180E2DB
:1016A000D8011D928A95E9F7D50113968C9080E0B8
:1016B00090E0612C712C30E061E070E083FC2591BA
:1016C00083FE21918F01522E211103C080E090E012
:1016D00092C02E3511F4009751F1432F50E0481776
:1016E00059073CF42D3559F12D3219F4772009F1C1
:1016F00003C0772009F46AC0452D46954695469566
:10170000D601A40FB11D452D47708B0102C0000FFB
:10171000111F4A95E2F7A8015C91452B4C93651483
:1017200059F0561410F45394E7CF5A94E5CF31E0B2
:1017300004C07724739401C0712C0196BFCF772029
:1017400019F08E8180628E83311103C088248394C6
:1017500017C0F6019E012F5D3F4F808180958193D8
:101760002E173F07D1F7F2CFE114F10429F0D7018A
:101770008C93F70131967F019A94812C9920F9F08E
:10178000C5010E943A0D97FD18C0FC01FF2723E018
:10179000F595E7952A95E1F7EC0DFD1D208130E0E8
:1017A000AC014770552702C0359527954A95E2F759
:1017B00020FDDACFB5010E94B40D811087CFE1146E
:1017C000F10411F0D7011C92C80115C0422F4695B3
:1017D00046954695D601A40FB11D422F47708B0147
:1017E00002C0000F111F4A95E2F7A8015C91452B3A
:1017F0004C93622EA2CFA096EFE00C944D0EA0E089
:10180000B0E0E5E0FCE00C94310E6C01EB015A0114
:10181000FC0117821682512CF601E380FE01E3FCE5
:101820008591E3FE8191182FEF01882309F4EEC022
:1018300090E00E94100D892B21F0C6010E94960AAB
:10184000EBCF153241F4FE01E3FC1591E3FE11915B
:10185000EF01153281F4C6010E943A0D97FDD4C004
:10186000412F50E09C01332724173507A9F2B60118
:101870000E94B40DCBC01A3239F4E3FC1591E3FE9B
:101880001191EF0101E001C000E0F12C20ED210FEA
:101890002A3080F402606F2D70E080E090E040E23A
:1018A0000E946F0AF62EFE01E3FC1591E3FE1191F2
:1018B000EF01ECCF01FF03C0F11003C0A7C0FF246C
:1018C000FA94183619F01C3651F010C0FE01E3FCF2
:1018D0001591E3FE1191EF01183641F408600460A0
:1018E000FE01E3FC1591E3FE1191EF01112309F4D0
:1018F0008DC0612F70E084E590E00E94190D892B66
:1019000009F484C000FD07C0F50180809180C50105
:1019100002965C0102C0812C912C1E3651F4F60116
:101920004681578160E070E0202FC4010E94630A65
:1019300073CF1336A9F401FD02C0FF24F394C6014E
:101940000E943A0D97FD60C08114910429F0F401C2
:101950008083C40101964C01FA94F110F0CF50C07D
:101960001B3559F49E01A4016F2DC6010E94410B45
:10197000EC01892B09F044C03EC0C6010E94960AC2
:1019800097FD42C01F3661F128F4143639F119363B
:1019900051F128C0133771F0153701F123C08114BC
:1019A000910429F0F4016082C40101964C01FA947B
:1019B000FF2071F0C6010E943A0D3C0197FD08C05E
:1019C0000E94100D892B59F3B601C3010E94B40D7A
:1019D00081149104A9F0F401108212C0006203C0C6
:1019E000006101C00064202FA4016F2DC6010E9478
:1019F000AF0A811105C0F6018381807329F406C006
:101A000000FD0ACF539408CF552019F0852D90E0A2
:101A100002C08FEF9FEFCDB7DEB7EFE00C944D0E15
:101A200091110C942B0E803219F089508550C8F713
:101A30000895FC010590061621F00020D9F7C00199
:101A400008953197CF010895FC01059061507040D1
:101A50000110D8F7809590958E0F9F1F0895FC0177
:101A60006150704001900110D8F7809590958E0FCD
:101A70009F1F0895CF93DF93EC012B8120FF33C08C
:101A800026FF0AC02F7B2B838E819F8101969F8327
:101A90008E838A8190E029C022FF0FC0E881F981FE
:101AA0008081082E000C990B009719F420622B837B
:101AB0001AC03196F983E8830EC0EA85FB85099543
:101AC00097FF09C02B81019611F080E201C080E1EF
:101AD000822B8B8308C02E813F812F5F3F4F3F8336
:101AE0002E83992702C08FEF9FEFDF91CF9108954A
:101AF0000F931F93CF93DF93FB01238121FD03C03D
:101B00008FEF9FEF2CC022FF16C0468157812481A2
:101B100035814217530744F4A081B1819D012F5FA5
:101B20003F4F318320838C93268137812F5F3F4F36
:101B30003783268314C08B01EC01FB010084F185FF
:101B4000E02D0995892BE1F6D80116968D919C918F
:101B50001797019617969C938E931697CE01DF9157
:101B6000CF911F910F910895FB01238120FF12C097
:101B700026FD10C08F3F3FEF930761F082832F7DDA
:101B800020642383268137812150310937832683BE
:101B9000992708958FEF9FEF0895FA01AA2728301B
:101BA00051F1203181F1E8946F936E7F6E5F7F4F2A
:101BB0008F4F9F4FAF4FB1E03ED0B4E03CD0670FA6
:101BC000781F891F9A1FA11D680F791F8A1F911DF9
:101BD000A11D6A0F711D811D911DA11D20D009F449
:101BE00068943F912AE0269F11243019305D31938B
:101BF000DEF6CF010895462F4770405D4193B3E074
:101C00000FD0C9F7F6CF462F4F70405D4A3318F01A
:101C1000495D31FD4052419302D0A9F7EACFB4E0CB
:101C2000A6959795879577956795BA95C9F7009783
:101C30006105710508959B01AC010A2E0694579524
:101C4000479537952795BA95C9F7620F731F841F7B
:101C5000951FA01D08959927882708952F923F92D8
:101C60004F925F926F927F928F929F92AF92BF92AC
:101C7000CF92DF92EF92FF920F931F93CF93DF9358
:101C8000CDB7DEB7CA1BDB0B0FB6F894DEBF0FBEB5
:101C9000CDBF09942A88398848885F846E847D8402
:101CA0008C849B84AA84B984C884DF80EE80FD8004
:101CB0000C811B81AA81B981CE0FD11D0FB6F8947A
:0E1CC000DEBF0FBECDBFED010895F894FFCF3B
:101CCE00017365742074696D650001206F70656E17
:101CDE00696E672E2E2E0D0020636C6F73696E6712
:101CEE002E2E2E0D0020456E7465722074696D6562
:101CFE007220636F6D6D616E643A20002530326420
:101D0E003A253032643A2530326400253032642F61
:101D1E00253032642F253032640073657420746967
:101D2E006D652025643A25643A25642025642F25A7
:0A1D3E00642F256400252E32660094
:00000001FF
